{
  "_format": "hh-sol-artifact-1",
  "contractName": "AirlineRewardCoin",
  "sourceName": "contracts/AirlineRewardCoin.sol",
  "abi": [
    {
      "inputs": [
        {
          "internalType": "string",
          "name": "_name",
          "type": "string"
        },
        {
          "internalType": "string",
          "name": "_symbol",
          "type": "string"
        }
      ],
      "stateMutability": "nonpayable",
      "type": "constructor"
    },
    {
      "anonymous": false,
      "inputs": [
        {
          "indexed": true,
          "internalType": "address",
          "name": "owner",
          "type": "address"
        },
        {
          "indexed": true,
          "internalType": "address",
          "name": "spender",
          "type": "address"
        },
        {
          "indexed": false,
          "internalType": "uint256",
          "name": "value",
          "type": "uint256"
        }
      ],
      "name": "Approval",
      "type": "event"
    },
    {
      "anonymous": false,
      "inputs": [
        {
          "indexed": false,
          "internalType": "string",
          "name": "prevURI",
          "type": "string"
        },
        {
          "indexed": false,
          "internalType": "string",
          "name": "newURI",
          "type": "string"
        }
      ],
      "name": "ContractURIUpdated",
      "type": "event"
    },
    {
      "anonymous": false,
      "inputs": [
        {
          "indexed": true,
          "internalType": "address",
          "name": "prevOwner",
          "type": "address"
        },
        {
          "indexed": true,
          "internalType": "address",
          "name": "newOwner",
          "type": "address"
        }
      ],
      "name": "OwnerUpdated",
      "type": "event"
    },
    {
      "anonymous": false,
      "inputs": [
        {
          "indexed": true,
          "internalType": "address",
          "name": "from",
          "type": "address"
        },
        {
          "indexed": true,
          "internalType": "address",
          "name": "to",
          "type": "address"
        },
        {
          "indexed": false,
          "internalType": "uint256",
          "name": "value",
          "type": "uint256"
        }
      ],
      "name": "Transfer",
      "type": "event"
    },
    {
      "inputs": [],
      "name": "DOMAIN_SEPARATOR",
      "outputs": [
        {
          "internalType": "bytes32",
          "name": "",
          "type": "bytes32"
        }
      ],
      "stateMutability": "view",
      "type": "function"
    },
    {
      "inputs": [
        {
          "internalType": "address",
          "name": "owner",
          "type": "address"
        },
        {
          "internalType": "address",
          "name": "spender",
          "type": "address"
        }
      ],
      "name": "allowance",
      "outputs": [
        {
          "internalType": "uint256",
          "name": "",
          "type": "uint256"
        }
      ],
      "stateMutability": "view",
      "type": "function"
    },
    {
      "inputs": [
        {
          "internalType": "address",
          "name": "spender",
          "type": "address"
        },
        {
          "internalType": "uint256",
          "name": "amount",
          "type": "uint256"
        }
      ],
      "name": "approve",
      "outputs": [
        {
          "internalType": "bool",
          "name": "",
          "type": "bool"
        }
      ],
      "stateMutability": "nonpayable",
      "type": "function"
    },
    {
      "inputs": [
        {
          "internalType": "address",
          "name": "account",
          "type": "address"
        }
      ],
      "name": "balanceOf",
      "outputs": [
        {
          "internalType": "uint256",
          "name": "",
          "type": "uint256"
        }
      ],
      "stateMutability": "view",
      "type": "function"
    },
    {
      "inputs": [
        {
          "internalType": "uint256",
          "name": "_amount",
          "type": "uint256"
        }
      ],
      "name": "burn",
      "outputs": [],
      "stateMutability": "nonpayable",
      "type": "function"
    },
    {
      "inputs": [],
      "name": "contractURI",
      "outputs": [
        {
          "internalType": "string",
          "name": "",
          "type": "string"
        }
      ],
      "stateMutability": "view",
      "type": "function"
    },
    {
      "inputs": [],
      "name": "decimals",
      "outputs": [
        {
          "internalType": "uint8",
          "name": "",
          "type": "uint8"
        }
      ],
      "stateMutability": "view",
      "type": "function"
    },
    {
      "inputs": [
        {
          "internalType": "address",
          "name": "spender",
          "type": "address"
        },
        {
          "internalType": "uint256",
          "name": "subtractedValue",
          "type": "uint256"
        }
      ],
      "name": "decreaseAllowance",
      "outputs": [
        {
          "internalType": "bool",
          "name": "",
          "type": "bool"
        }
      ],
      "stateMutability": "nonpayable",
      "type": "function"
    },
    {
      "inputs": [
        {
          "internalType": "address",
          "name": "spender",
          "type": "address"
        },
        {
          "internalType": "uint256",
          "name": "addedValue",
          "type": "uint256"
        }
      ],
      "name": "increaseAllowance",
      "outputs": [
        {
          "internalType": "bool",
          "name": "",
          "type": "bool"
        }
      ],
      "stateMutability": "nonpayable",
      "type": "function"
    },
    {
      "inputs": [
        {
          "internalType": "address",
          "name": "_to",
          "type": "address"
        },
        {
          "internalType": "uint256",
          "name": "_amount",
          "type": "uint256"
        }
      ],
      "name": "mintTo",
      "outputs": [],
      "stateMutability": "nonpayable",
      "type": "function"
    },
    {
      "inputs": [
        {
          "internalType": "bytes[]",
          "name": "data",
          "type": "bytes[]"
        }
      ],
      "name": "multicall",
      "outputs": [
        {
          "internalType": "bytes[]",
          "name": "results",
          "type": "bytes[]"
        }
      ],
      "stateMutability": "nonpayable",
      "type": "function"
    },
    {
      "inputs": [],
      "name": "name",
      "outputs": [
        {
          "internalType": "string",
          "name": "",
          "type": "string"
        }
      ],
      "stateMutability": "view",
      "type": "function"
    },
    {
      "inputs": [
        {
          "internalType": "address",
          "name": "owner",
          "type": "address"
        }
      ],
      "name": "nonces",
      "outputs": [
        {
          "internalType": "uint256",
          "name": "",
          "type": "uint256"
        }
      ],
      "stateMutability": "view",
      "type": "function"
    },
    {
      "inputs": [],
      "name": "owner",
      "outputs": [
        {
          "internalType": "address",
          "name": "",
          "type": "address"
        }
      ],
      "stateMutability": "view",
      "type": "function"
    },
    {
      "inputs": [
        {
          "internalType": "address",
          "name": "owner",
          "type": "address"
        },
        {
          "internalType": "address",
          "name": "spender",
          "type": "address"
        },
        {
          "internalType": "uint256",
          "name": "value",
          "type": "uint256"
        },
        {
          "internalType": "uint256",
          "name": "deadline",
          "type": "uint256"
        },
        {
          "internalType": "uint8",
          "name": "v",
          "type": "uint8"
        },
        {
          "internalType": "bytes32",
          "name": "r",
          "type": "bytes32"
        },
        {
          "internalType": "bytes32",
          "name": "s",
          "type": "bytes32"
        }
      ],
      "name": "permit",
      "outputs": [],
      "stateMutability": "nonpayable",
      "type": "function"
    },
    {
      "inputs": [
        {
          "internalType": "string",
          "name": "_uri",
          "type": "string"
        }
      ],
      "name": "setContractURI",
      "outputs": [],
      "stateMutability": "nonpayable",
      "type": "function"
    },
    {
      "inputs": [
        {
          "internalType": "address",
          "name": "_newOwner",
          "type": "address"
        }
      ],
      "name": "setOwner",
      "outputs": [],
      "stateMutability": "nonpayable",
      "type": "function"
    },
    {
      "inputs": [],
      "name": "symbol",
      "outputs": [
        {
          "internalType": "string",
          "name": "",
          "type": "string"
        }
      ],
      "stateMutability": "view",
      "type": "function"
    },
    {
      "inputs": [],
      "name": "totalSupply",
      "outputs": [
        {
          "internalType": "uint256",
          "name": "",
          "type": "uint256"
        }
      ],
      "stateMutability": "view",
      "type": "function"
    },
    {
      "inputs": [
        {
          "internalType": "address",
          "name": "to",
          "type": "address"
        },
        {
          "internalType": "uint256",
          "name": "amount",
          "type": "uint256"
        }
      ],
      "name": "transfer",
      "outputs": [
        {
          "internalType": "bool",
          "name": "",
          "type": "bool"
        }
      ],
      "stateMutability": "nonpayable",
      "type": "function"
    },
    {
      "inputs": [
        {
          "internalType": "address",
          "name": "from",
          "type": "address"
        },
        {
          "internalType": "address",
          "name": "to",
          "type": "address"
        },
        {
          "internalType": "uint256",
          "name": "amount",
          "type": "uint256"
        }
      ],
      "name": "transferFrom",
      "outputs": [
        {
          "internalType": "bool",
          "name": "",
          "type": "bool"
        }
      ],
      "stateMutability": "nonpayable",
      "type": "function"
    }
  ],
  "bytecode": "0x6101006040527f6e71edae12b1b97f4d1f60370fef10105fa2faae0126114a169c64845d6126c960e0523480156200003657600080fd5b506040516200234b3803806200234b8339810160408190526200005991620004e3565b81818181818160056200006d8382620005db565b5060066200007c8282620005db565b50504660a052503060c05262000091620000c5565b60805250620000a29050336200015c565b50620000bd9050336b033b2e3c9fd0803ce8000000620001ae565b5050620006cf565b60007f8b73c3c69bb8fe3d512ecc4cf759cc79239f7b179b0ffacaa9a75d522b39400f620000f26200026c565b80516020918201206040805192830193909352918101919091527fc89efdaa54c0f20c7adf612882df0950f5a951637e0307cdcb4c672f298b8bc660608201524660808201523060a082015260c00160405160208183030381529060405280519060200120905090565b600180546001600160a01b038381166001600160a01b0319831681179093556040519116919082907f8292fce18fa69edf4db7b94ea2e58241df0ae57f97e0a6c9b29067028bf92d7690600090a35050565b620001b862000306565b6200020a5760405162461bcd60e51b815260206004820152601760248201527f4e6f7420617574686f72697a656420746f206d696e742e00000000000000000060448201526064015b60405180910390fd5b806000036200025c5760405162461bcd60e51b815260206004820152601460248201527f4d696e74696e67207a65726f20746f6b656e732e000000000000000000000000604482015260640162000201565b62000268828262000334565b5050565b6060600580546200027d906200054d565b80601f0160208091040260200160405190810160405280929190818152602001828054620002ab906200054d565b8015620002fc5780601f10620002d057610100808354040283529160200191620002fc565b820191906000526020600020905b815481529060010190602001808311620002de57829003601f168201915b5050505050905090565b60006200031b6001546001600160a01b031690565b6001600160a01b0316336001600160a01b031614905090565b6001600160a01b0382166200038c5760405162461bcd60e51b815260206004820152601f60248201527f45524332303a206d696e7420746f20746865207a65726f206164647265737300604482015260640162000201565b8060046000828254620003a09190620006a7565b90915550506001600160a01b03821660009081526002602052604081208054839290620003cf908490620006a7565b90915550506040518181526001600160a01b038316906000907fddf252ad1be2c89b69c2b068fc378daa952ba7f163c4a11628f55a4df523b3ef9060200160405180910390a35050565b505050565b634e487b7160e01b600052604160045260246000fd5b600082601f8301126200044657600080fd5b81516001600160401b03808211156200046357620004636200041e565b604051601f8301601f19908116603f011681019082821181831017156200048e576200048e6200041e565b81604052838152602092508683858801011115620004ab57600080fd5b600091505b83821015620004cf5785820183015181830184015290820190620004b0565b600093810190920192909252949350505050565b60008060408385031215620004f757600080fd5b82516001600160401b03808211156200050f57600080fd5b6200051d8683870162000434565b935060208501519150808211156200053457600080fd5b50620005438582860162000434565b9150509250929050565b600181811c908216806200056257607f821691505b6020821081036200058357634e487b7160e01b600052602260045260246000fd5b50919050565b601f8211156200041957600081815260208120601f850160051c81016020861015620005b25750805b601f850160051c820191505b81811015620005d357828155600101620005be565b505050505050565b81516001600160401b03811115620005f757620005f76200041e565b6200060f816200060884546200054d565b8462000589565b602080601f8311600181146200064757600084156200062e5750858301515b600019600386901b1c1916600185901b178555620005d3565b600085815260208120601f198616915b82811015620006785788860151825594840194600190910190840162000657565b5085821015620006975787850151600019600388901b60f8161c191681555b5050505050600190811b01905550565b80820180821115620006c957634e487b7160e01b600052601160045260246000fd5b92915050565b60805160a05160c05160e051611c4262000709600039600061088001526000610448015260006104720152600061049c0152611c426000f3fe608060405234801561001057600080fd5b50600436106101375760003560e01c806370a08231116100b8578063a457c2d71161007c578063a457c2d714610279578063a9059cbb1461028c578063ac9650d81461029f578063d505accf146102bf578063dd62ed3e146102d2578063e8a3d4851461030b57600080fd5b806370a08231146102075780637ecebe00146102305780638da5cb5b14610243578063938e3d7b1461025e57806395d89b411461027157600080fd5b8063313ce567116100ff578063313ce567146101b75780633644e515146101c657806339509351146101ce57806342966c68146101e1578063449a52f8146101f457600080fd5b806306fdde031461013c578063095ea7b31461015a57806313af40351461017d57806318160ddd1461019257806323b872dd146101a4575b600080fd5b610144610313565b604051610151919061167d565b60405180910390f35b61016d6101683660046116ac565b6103a5565b6040519015158152602001610151565b61019061018b3660046116d6565b6103bf565b005b6004545b604051908152602001610151565b61016d6101b23660046116f1565b610415565b60405160128152602001610151565b61019661043b565b61016d6101dc3660046116ac565b6104cb565b6101906101ef36600461172d565b61050a565b6101906102023660046116ac565b610568565b6101966102153660046116d6565b6001600160a01b031660009081526002602052604090205490565b61019661023e3660046116d6565b610611565b6001546040516001600160a01b039091168152602001610151565b61019061026c36600461175c565b61062f565b61014461067d565b61016d6102873660046116ac565b61068c565b61016d61029a3660046116ac565b610729565b6102b26102ad36600461180d565b610737565b6040516101519190611882565b6101906102cd3660046118e4565b61082c565b6101966102e0366004611957565b6001600160a01b03918216600090815260036020908152604080832093909416825291909152205490565b6101446109d3565b6060600580546103229061198a565b80601f016020809104026020016040519081016040528092919081815260200182805461034e9061198a565b801561039b5780601f106103705761010080835404028352916020019161039b565b820191906000526020600020905b81548152906001019060200180831161037e57829003601f168201915b5050505050905090565b6000336103b3818585610a61565b60019150505b92915050565b6103c7610b86565b6104095760405162461bcd60e51b815260206004820152600e60248201526d139bdd08185d5d1a1bdc9a5e995960921b60448201526064015b60405180910390fd5b61041281610bb3565b50565b600033610423858285610c05565b61042e858585610c97565b60019150505b9392505050565b6000306001600160a01b037f00000000000000000000000000000000000000000000000000000000000000001614801561049457507f000000000000000000000000000000000000000000000000000000000000000046145b156104be57507f000000000000000000000000000000000000000000000000000000000000000090565b6104c6610e65565b905090565b3360008181526003602090815260408083206001600160a01b03871684529091528120549091906103b390829086906105059087906119d4565b610a61565b3360009081526002602052604090205481111561055e5760405162461bcd60e51b81526020600482015260126024820152716e6f7420656e6f7567682062616c616e636560701b6044820152606401610400565b6104123382610efa565b610570610b86565b6105bc5760405162461bcd60e51b815260206004820152601760248201527f4e6f7420617574686f72697a656420746f206d696e742e0000000000000000006044820152606401610400565b806000036106035760405162461bcd60e51b815260206004820152601460248201527326b4b73a34b733903d32b937903a37b5b2b7399760611b6044820152606401610400565b61060d8282611045565b5050565b6001600160a01b0381166000908152600760205260408120546103b9565b610637610b86565b6106745760405162461bcd60e51b815260206004820152600e60248201526d139bdd08185d5d1a1bdc9a5e995960921b6044820152606401610400565b61041281611124565b6060600680546103229061198a565b3360008181526003602090815260408083206001600160a01b0387168452909152812054909190838110156107115760405162461bcd60e51b815260206004820152602560248201527f45524332303a2064656372656173656420616c6c6f77616e63652062656c6f77604482015264207a65726f60d81b6064820152608401610400565b61071e8286868403610a61565b506001949350505050565b6000336103b3818585610c97565b60608167ffffffffffffffff81111561075257610752611746565b60405190808252806020026020018201604052801561078557816020015b60608152602001906001900390816107705790505b50905060005b82811015610825576107f5308585848181106107a9576107a96119e7565b90506020028101906107bb91906119fd565b8080601f0160208091040260200160405190810160405280939291908181526020018383808284376000920191909152506111ff92505050565b828281518110610807576108076119e7565b6020026020010181905250808061081d90611a4b565b91505061078b565b5092915050565b8342111561087c5760405162461bcd60e51b815260206004820152601d60248201527f45524332305065726d69743a206578706972656420646561646c696e650000006044820152606401610400565b60007f00000000000000000000000000000000000000000000000000000000000000008888886108ab8c611224565b6040805160208101969096526001600160a01b0394851690860152929091166060840152608083015260a082015260c0810186905260e001604051602081830303815290604052805190602001209050600061094961090861043b565b8360405161190160f01b6020820152602281018390526042810182905260009060620160405160208183030381529060405280519060200120905092915050565b905060006109598287878761124c565b9050896001600160a01b0316816001600160a01b0316146109bc5760405162461bcd60e51b815260206004820152601e60248201527f45524332305065726d69743a20696e76616c6964207369676e617475726500006044820152606401610400565b6109c78a8a8a610a61565b50505050505050505050565b600080546109e09061198a565b80601f0160208091040260200160405190810160405280929190818152602001828054610a0c9061198a565b8015610a595780601f10610a2e57610100808354040283529160200191610a59565b820191906000526020600020905b815481529060010190602001808311610a3c57829003601f168201915b505050505081565b6001600160a01b038316610ac35760405162461bcd60e51b8152602060048201526024808201527f45524332303a20617070726f76652066726f6d20746865207a65726f206164646044820152637265737360e01b6064820152608401610400565b6001600160a01b038216610b245760405162461bcd60e51b815260206004820152602260248201527f45524332303a20617070726f766520746f20746865207a65726f206164647265604482015261737360f01b6064820152608401610400565b6001600160a01b0383811660008181526003602090815260408083209487168084529482529182902085905590518481527f8c5be1e5ebec7d5bd14f71427d1e84f3dd0314c0f7b2291e5b200ac8c7c3b92591015b60405180910390a3505050565b6000610b9a6001546001600160a01b031690565b6001600160a01b0316336001600160a01b031614905090565b600180546001600160a01b038381166001600160a01b0319831681179093556040519116919082907f8292fce18fa69edf4db7b94ea2e58241df0ae57f97e0a6c9b29067028bf92d7690600090a35050565b6001600160a01b038381166000908152600360209081526040808320938616835292905220546000198114610c915781811015610c845760405162461bcd60e51b815260206004820152601d60248201527f45524332303a20696e73756666696369656e7420616c6c6f77616e63650000006044820152606401610400565b610c918484848403610a61565b50505050565b6001600160a01b038316610cfb5760405162461bcd60e51b815260206004820152602560248201527f45524332303a207472616e736665722066726f6d20746865207a65726f206164604482015264647265737360d81b6064820152608401610400565b6001600160a01b038216610d5d5760405162461bcd60e51b815260206004820152602360248201527f45524332303a207472616e7366657220746f20746865207a65726f206164647260448201526265737360e81b6064820152608401610400565b6001600160a01b03831660009081526002602052604090205481811015610dd55760405162461bcd60e51b815260206004820152602660248201527f45524332303a207472616e7366657220616d6f756e7420657863656564732062604482015265616c616e636560d01b6064820152608401610400565b6001600160a01b03808516600090815260026020526040808220858503905591851681529081208054849290610e0c9084906119d4565b92505081905550826001600160a01b0316846001600160a01b03167fddf252ad1be2c89b69c2b068fc378daa952ba7f163c4a11628f55a4df523b3ef84604051610e5891815260200190565b60405180910390a3610c91565b60007f8b73c3c69bb8fe3d512ecc4cf759cc79239f7b179b0ffacaa9a75d522b39400f610e90610313565b80516020918201206040805192830193909352918101919091527fc89efdaa54c0f20c7adf612882df0950f5a951637e0307cdcb4c672f298b8bc660608201524660808201523060a082015260c00160405160208183030381529060405280519060200120905090565b6001600160a01b038216610f5a5760405162461bcd60e51b815260206004820152602160248201527f45524332303a206275726e2066726f6d20746865207a65726f206164647265736044820152607360f81b6064820152608401610400565b6001600160a01b03821660009081526002602052604090205481811015610fce5760405162461bcd60e51b815260206004820152602260248201527f45524332303a206275726e20616d6f756e7420657863656564732062616c616e604482015261636560f01b6064820152608401610400565b6001600160a01b0383166000908152600260205260408120838303905560048054849290610ffd908490611a64565b90915550506040518281526000906001600160a01b038516907fddf252ad1be2c89b69c2b068fc378daa952ba7f163c4a11628f55a4df523b3ef90602001610b79565b505050565b6001600160a01b03821661109b5760405162461bcd60e51b815260206004820152601f60248201527f45524332303a206d696e7420746f20746865207a65726f2061646472657373006044820152606401610400565b80600460008282546110ad91906119d4565b90915550506001600160a01b038216600090815260026020526040812080548392906110da9084906119d4565b90915550506040518181526001600160a01b038316906000907fddf252ad1be2c89b69c2b068fc378daa952ba7f163c4a11628f55a4df523b3ef9060200160405180910390a35050565b60008080546111329061198a565b80601f016020809104026020016040519081016040528092919081815260200182805461115e9061198a565b80156111ab5780601f10611180576101008083540402835291602001916111ab565b820191906000526020600020905b81548152906001019060200180831161118e57829003601f168201915b5050505050905081600090816111c19190611ac5565b507fc9c7c3fe08b88b4df9d4d47ef47d2c43d55c025a0ba88ca442580ed9e7348a1681836040516111f3929190611b85565b60405180910390a15050565b60606104348383604051806060016040528060278152602001611be660279139611274565b6001600160a01b03811660009081526007602052604090208054600181018255905b50919050565b600080600061125d87878787611351565b9150915061126a8161143e565b5095945050505050565b60606001600160a01b0384163b6112dc5760405162461bcd60e51b815260206004820152602660248201527f416464726573733a2064656c65676174652063616c6c20746f206e6f6e2d636f6044820152651b9d1c9858dd60d21b6064820152608401610400565b600080856001600160a01b0316856040516112f79190611bb3565b600060405180830381855af49150503d8060008114611332576040519150601f19603f3d011682016040523d82523d6000602084013e611337565b606091505b50915091506113478282866115f4565b9695505050505050565b6000807f7fffffffffffffffffffffffffffffff5d576e7357a4501ddfe92f46681b20a08311156113885750600090506003611435565b8460ff16601b141580156113a057508460ff16601c14155b156113b15750600090506004611435565b6040805160008082526020820180845289905260ff881692820192909252606081018690526080810185905260019060a0016020604051602081039080840390855afa158015611405573d6000803e3d6000fd5b5050604051601f1901519150506001600160a01b03811661142e57600060019250925050611435565b9150600090505b94509492505050565b600081600481111561145257611452611bcf565b0361145a5750565b600181600481111561146e5761146e611bcf565b036114bb5760405162461bcd60e51b815260206004820152601860248201527f45434453413a20696e76616c6964207369676e617475726500000000000000006044820152606401610400565b60028160048111156114cf576114cf611bcf565b0361151c5760405162461bcd60e51b815260206004820152601f60248201527f45434453413a20696e76616c6964207369676e6174757265206c656e677468006044820152606401610400565b600381600481111561153057611530611bcf565b036115885760405162461bcd60e51b815260206004820152602260248201527f45434453413a20696e76616c6964207369676e6174757265202773272076616c604482015261756560f01b6064820152608401610400565b600481600481111561159c5761159c611bcf565b036104125760405162461bcd60e51b815260206004820152602260248201527f45434453413a20696e76616c6964207369676e6174757265202776272076616c604482015261756560f01b6064820152608401610400565b60608315611603575081610434565b8251156116135782518084602001fd5b8160405162461bcd60e51b8152600401610400919061167d565b60005b83811015611648578181015183820152602001611630565b50506000910152565b6000815180845261166981602086016020860161162d565b601f01601f19169290920160200192915050565b6020815260006104346020830184611651565b80356001600160a01b03811681146116a757600080fd5b919050565b600080604083850312156116bf57600080fd5b6116c883611690565b946020939093013593505050565b6000602082840312156116e857600080fd5b61043482611690565b60008060006060848603121561170657600080fd5b61170f84611690565b925061171d60208501611690565b9150604084013590509250925092565b60006020828403121561173f57600080fd5b5035919050565b634e487b7160e01b600052604160045260246000fd5b60006020828403121561176e57600080fd5b813567ffffffffffffffff8082111561178657600080fd5b818401915084601f83011261179a57600080fd5b8135818111156117ac576117ac611746565b604051601f8201601f19908116603f011681019083821181831017156117d4576117d4611746565b816040528281528760208487010111156117ed57600080fd5b826020860160208301376000928101602001929092525095945050505050565b6000806020838503121561182057600080fd5b823567ffffffffffffffff8082111561183857600080fd5b818501915085601f83011261184c57600080fd5b81358181111561185b57600080fd5b8660208260051b850101111561187057600080fd5b60209290920196919550909350505050565b6000602080830181845280855180835260408601915060408160051b870101925083870160005b828110156118d757603f198886030184526118c5858351611651565b945092850192908501906001016118a9565b5092979650505050505050565b600080600080600080600060e0888a0312156118ff57600080fd5b61190888611690565b965061191660208901611690565b95506040880135945060608801359350608088013560ff8116811461193a57600080fd5b9699959850939692959460a0840135945060c09093013592915050565b6000806040838503121561196a57600080fd5b61197383611690565b915061198160208401611690565b90509250929050565b600181811c9082168061199e57607f821691505b60208210810361124657634e487b7160e01b600052602260045260246000fd5b634e487b7160e01b600052601160045260246000fd5b808201808211156103b9576103b96119be565b634e487b7160e01b600052603260045260246000fd5b6000808335601e19843603018112611a1457600080fd5b83018035915067ffffffffffffffff821115611a2f57600080fd5b602001915036819003821315611a4457600080fd5b9250929050565b600060018201611a5d57611a5d6119be565b5060010190565b818103818111156103b9576103b96119be565b601f82111561104057600081815260208120601f850160051c81016020861015611a9e5750805b601f850160051c820191505b81811015611abd57828155600101611aaa565b505050505050565b815167ffffffffffffffff811115611adf57611adf611746565b611af381611aed845461198a565b84611a77565b602080601f831160018114611b285760008415611b105750858301515b600019600386901b1c1916600185901b178555611abd565b600085815260208120601f198616915b82811015611b5757888601518255948401946001909101908401611b38565b5085821015611b755787850151600019600388901b60f8161c191681555b5050505050600190811b01905550565b604081526000611b986040830185611651565b8281036020840152611baa8185611651565b95945050505050565b60008251611bc581846020870161162d565b9190910192915050565b634e487b7160e01b600052602160045260246000fdfe416464726573733a206c6f772d6c6576656c2064656c65676174652063616c6c206661696c6564a264697066735822122076359a71f35db9322081b1943513911e426929edb43e2d202ae26bfae79a0b9864736f6c63430008120033",
  "linkReferences": {},
  "deployedLinkReferences": {}
}