{
  "_format": "hh-sol-artifact-1",
  "contractName": "StakingAirline",
  "sourceName": "contracts/StakingAirline.sol",
  "abi": [
    {
      "inputs": [
        {
          "internalType": "uint256",
          "name": "_timeUnit",
          "type": "uint256"
        },
        {
          "internalType": "uint256",
          "name": "_rewardRatioNumerator",
          "type": "uint256"
        },
        {
          "internalType": "uint256",
          "name": "_rewardRatioDenominator",
          "type": "uint256"
        },
        {
          "internalType": "address",
          "name": "_stakingToken",
          "type": "address"
        },
        {
          "internalType": "address",
          "name": "_rewardToken",
          "type": "address"
        },
        {
          "internalType": "address",
          "name": "_nativeTokenWrapper",
          "type": "address"
        }
      ],
      "stateMutability": "nonpayable",
      "type": "constructor"
    },
    {
      "anonymous": false,
      "inputs": [
        {
          "indexed": false,
          "internalType": "string",
          "name": "prevURI",
          "type": "string"
        },
        {
          "indexed": false,
          "internalType": "string",
          "name": "newURI",
          "type": "string"
        }
      ],
      "name": "ContractURIUpdated",
      "type": "event"
    },
    {
      "anonymous": false,
      "inputs": [
        {
          "indexed": true,
          "internalType": "address",
          "name": "prevOwner",
          "type": "address"
        },
        {
          "indexed": true,
          "internalType": "address",
          "name": "newOwner",
          "type": "address"
        }
      ],
      "name": "OwnerUpdated",
      "type": "event"
    },
    {
      "anonymous": false,
      "inputs": [
        {
          "indexed": true,
          "internalType": "address",
          "name": "staker",
          "type": "address"
        },
        {
          "indexed": false,
          "internalType": "uint256",
          "name": "rewardAmount",
          "type": "uint256"
        }
      ],
      "name": "RewardsClaimed",
      "type": "event"
    },
    {
      "anonymous": false,
      "inputs": [
        {
          "indexed": true,
          "internalType": "address",
          "name": "staker",
          "type": "address"
        },
        {
          "indexed": false,
          "internalType": "uint256",
          "name": "amount",
          "type": "uint256"
        }
      ],
      "name": "TokensStaked",
      "type": "event"
    },
    {
      "anonymous": false,
      "inputs": [
        {
          "indexed": true,
          "internalType": "address",
          "name": "staker",
          "type": "address"
        },
        {
          "indexed": false,
          "internalType": "uint256",
          "name": "amount",
          "type": "uint256"
        }
      ],
      "name": "TokensWithdrawn",
      "type": "event"
    },
    {
      "anonymous": false,
      "inputs": [
        {
          "indexed": false,
          "internalType": "uint256",
          "name": "oldAmount",
          "type": "uint256"
        },
        {
          "indexed": false,
          "internalType": "uint256",
          "name": "newAmount",
          "type": "uint256"
        }
      ],
      "name": "UpdatedMinStakeAmount",
      "type": "event"
    },
    {
      "anonymous": false,
      "inputs": [
        {
          "indexed": false,
          "internalType": "uint256",
          "name": "oldNumerator",
          "type": "uint256"
        },
        {
          "indexed": false,
          "internalType": "uint256",
          "name": "newNumerator",
          "type": "uint256"
        },
        {
          "indexed": false,
          "internalType": "uint256",
          "name": "oldDenominator",
          "type": "uint256"
        },
        {
          "indexed": false,
          "internalType": "uint256",
          "name": "newDenominator",
          "type": "uint256"
        }
      ],
      "name": "UpdatedRewardRatio",
      "type": "event"
    },
    {
      "anonymous": false,
      "inputs": [
        {
          "indexed": false,
          "internalType": "uint256",
          "name": "oldTimeUnit",
          "type": "uint256"
        },
        {
          "indexed": false,
          "internalType": "uint256",
          "name": "newTimeUnit",
          "type": "uint256"
        }
      ],
      "name": "UpdatedTimeUnit",
      "type": "event"
    },
    {
      "inputs": [],
      "name": "claimRewards",
      "outputs": [],
      "stateMutability": "nonpayable",
      "type": "function"
    },
    {
      "inputs": [],
      "name": "contractURI",
      "outputs": [
        {
          "internalType": "string",
          "name": "",
          "type": "string"
        }
      ],
      "stateMutability": "view",
      "type": "function"
    },
    {
      "inputs": [
        {
          "internalType": "uint256",
          "name": "_amount",
          "type": "uint256"
        }
      ],
      "name": "depositRewardTokens",
      "outputs": [],
      "stateMutability": "payable",
      "type": "function"
    },
    {
      "inputs": [],
      "name": "getRewardRatio",
      "outputs": [
        {
          "internalType": "uint256",
          "name": "_numerator",
          "type": "uint256"
        },
        {
          "internalType": "uint256",
          "name": "_denominator",
          "type": "uint256"
        }
      ],
      "stateMutability": "view",
      "type": "function"
    },
    {
      "inputs": [],
      "name": "getRewardTokenBalance",
      "outputs": [
        {
          "internalType": "uint256",
          "name": "",
          "type": "uint256"
        }
      ],
      "stateMutability": "view",
      "type": "function"
    },
    {
      "inputs": [
        {
          "internalType": "address",
          "name": "_staker",
          "type": "address"
        }
      ],
      "name": "getStakeInfo",
      "outputs": [
        {
          "internalType": "uint256",
          "name": "_tokensStaked",
          "type": "uint256"
        },
        {
          "internalType": "uint256",
          "name": "_rewards",
          "type": "uint256"
        }
      ],
      "stateMutability": "view",
      "type": "function"
    },
    {
      "inputs": [],
      "name": "getTimeUnit",
      "outputs": [
        {
          "internalType": "uint256",
          "name": "_timeUnit",
          "type": "uint256"
        }
      ],
      "stateMutability": "view",
      "type": "function"
    },
    {
      "inputs": [
        {
          "internalType": "bytes[]",
          "name": "data",
          "type": "bytes[]"
        }
      ],
      "name": "multicall",
      "outputs": [
        {
          "internalType": "bytes[]",
          "name": "results",
          "type": "bytes[]"
        }
      ],
      "stateMutability": "nonpayable",
      "type": "function"
    },
    {
      "inputs": [],
      "name": "owner",
      "outputs": [
        {
          "internalType": "address",
          "name": "",
          "type": "address"
        }
      ],
      "stateMutability": "view",
      "type": "function"
    },
    {
      "inputs": [],
      "name": "rewardToken",
      "outputs": [
        {
          "internalType": "address",
          "name": "",
          "type": "address"
        }
      ],
      "stateMutability": "view",
      "type": "function"
    },
    {
      "inputs": [],
      "name": "rewardTokenDecimals",
      "outputs": [
        {
          "internalType": "uint256",
          "name": "",
          "type": "uint256"
        }
      ],
      "stateMutability": "view",
      "type": "function"
    },
    {
      "inputs": [
        {
          "internalType": "string",
          "name": "_uri",
          "type": "string"
        }
      ],
      "name": "setContractURI",
      "outputs": [],
      "stateMutability": "nonpayable",
      "type": "function"
    },
    {
      "inputs": [
        {
          "internalType": "address",
          "name": "_newOwner",
          "type": "address"
        }
      ],
      "name": "setOwner",
      "outputs": [],
      "stateMutability": "nonpayable",
      "type": "function"
    },
    {
      "inputs": [
        {
          "internalType": "uint256",
          "name": "_numerator",
          "type": "uint256"
        },
        {
          "internalType": "uint256",
          "name": "_denominator",
          "type": "uint256"
        }
      ],
      "name": "setRewardRatio",
      "outputs": [],
      "stateMutability": "nonpayable",
      "type": "function"
    },
    {
      "inputs": [
        {
          "internalType": "uint256",
          "name": "_timeUnit",
          "type": "uint256"
        }
      ],
      "name": "setTimeUnit",
      "outputs": [],
      "stateMutability": "nonpayable",
      "type": "function"
    },
    {
      "inputs": [
        {
          "internalType": "uint256",
          "name": "_amount",
          "type": "uint256"
        }
      ],
      "name": "stake",
      "outputs": [],
      "stateMutability": "payable",
      "type": "function"
    },
    {
      "inputs": [
        {
          "internalType": "address",
          "name": "",
          "type": "address"
        }
      ],
      "name": "stakers",
      "outputs": [
        {
          "internalType": "uint256",
          "name": "amountStaked",
          "type": "uint256"
        },
        {
          "internalType": "uint256",
          "name": "timeOfLastUpdate",
          "type": "uint256"
        },
        {
          "internalType": "uint256",
          "name": "unclaimedRewards",
          "type": "uint256"
        },
        {
          "internalType": "uint256",
          "name": "conditionIdOflastUpdate",
          "type": "uint256"
        }
      ],
      "stateMutability": "view",
      "type": "function"
    },
    {
      "inputs": [
        {
          "internalType": "uint256",
          "name": "",
          "type": "uint256"
        }
      ],
      "name": "stakersArray",
      "outputs": [
        {
          "internalType": "address",
          "name": "",
          "type": "address"
        }
      ],
      "stateMutability": "view",
      "type": "function"
    },
    {
      "inputs": [],
      "name": "stakingToken",
      "outputs": [
        {
          "internalType": "address",
          "name": "",
          "type": "address"
        }
      ],
      "stateMutability": "view",
      "type": "function"
    },
    {
      "inputs": [],
      "name": "stakingTokenBalance",
      "outputs": [
        {
          "internalType": "uint256",
          "name": "",
          "type": "uint256"
        }
      ],
      "stateMutability": "view",
      "type": "function"
    },
    {
      "inputs": [],
      "name": "stakingTokenDecimals",
      "outputs": [
        {
          "internalType": "uint256",
          "name": "",
          "type": "uint256"
        }
      ],
      "stateMutability": "view",
      "type": "function"
    },
    {
      "inputs": [
        {
          "internalType": "uint256",
          "name": "_amount",
          "type": "uint256"
        }
      ],
      "name": "withdraw",
      "outputs": [],
      "stateMutability": "nonpayable",
      "type": "function"
    },
    {
      "inputs": [
        {
          "internalType": "uint256",
          "name": "_amount",
          "type": "uint256"
        }
      ],
      "name": "withdrawRewardTokens",
      "outputs": [],
      "stateMutability": "nonpayable",
      "type": "function"
    },
    {
      "stateMutability": "payable",
      "type": "receive"
    }
  ],
  "bytecode": "0x60a06040523480156200001157600080fd5b5060405162002e1c38038062002e1c833981016040819052620000349162000455565b8585858585858083846001600160a01b031663313ce5676040518163ffffffff1660e01b8152600401602060405180830381865afa1580156200007b573d6000803e3d6000fd5b505050506040513d601f19601f82011682018060405250810190620000a19190620004bb565b60ff16846001600160a01b031663313ce5676040518163ffffffff1660e01b8152600401602060405180830381865afa158015620000e3573d6000803e3d6000fd5b505050506040513d601f19601f82011682018060405250810190620001099190620004bb565b600160025560ff166001600160a01b038316158015906200013257506001600160a01b03841615155b620001705760405162461bcd60e51b815260206004820152600960248201526806164647265737320360bc1b60448201526064015b60405180910390fd5b81158015906200017f57508015155b620001ba5760405162461bcd60e51b815260206004820152600a6024820152690646563696d616c7320360b41b604482015260640162000167565b6001600160a01b03938416608052600380546001600160a01b0319169390941692909217909255600491909155600555620001f533620002ad565b62000202868686620002ff565b826001600160a01b0316826001600160a01b0316036200027b5760405162461bcd60e51b815260206004820152602d60248201527f52657761726420546f6b656e20616e64205374616b696e6720546f6b656e206360448201526c30b713ba1031329039b0b6b29760991b606482015260840162000167565b50600b80546001600160a01b0319166001600160a01b0392909216919091179055506200052f98505050505050505050565b600180546001600160a01b038381166001600160a01b0319831681179093556040519116919082907f8292fce18fa69edf4db7b94ea2e58241df0ae57f97e0a6c9b29067028bf92d7690600090a35050565b806000036200033f5760405162461bcd60e51b815260206004820152600b60248201526a064697669646520627920360ac1b604482015260640162000167565b82600003620003915760405162461bcd60e51b815260206004820152601460248201527f74696d652d756e69742063616e27742062652030000000000000000000000000604482015260640162000167565b60088054906001906000620003a78385620004fd565b90915550506040805160a08101825285815260208082018681528284018681524260608501908152600060808601818152888252600a9095529590952093518455905160018401555160028301559151600382015590516004909101558015620004325742600a60006200041d60018562000519565b81526020810191909152604001600020600401555b50505050565b80516001600160a01b03811681146200045057600080fd5b919050565b60008060008060008060c087890312156200046f57600080fd5b8651955060208701519450604087015193506200048f6060880162000438565b92506200049f6080880162000438565b9150620004af60a0880162000438565b90509295509295509295565b600060208284031215620004ce57600080fd5b815160ff81168114620004e057600080fd5b9392505050565b634e487b7160e01b600052601160045260246000fd5b80820180821115620005135762000513620004e7565b92915050565b81810381811115620005135762000513620004e7565b608051612899620005836000396000818161015301528181610cf501528181610d9b015281816110ae01528181611338015281816114c1015281816116d3015281816117330152611c3601526128996000f3fe6080604052600436106101435760003560e01c8063938e3d7b116100b6578063b9f7a7b51161006f578063b9f7a7b51461042a578063c345315314610440578063cb43b2dd14610460578063d68124c714610480578063e8a3d48514610495578063f7c618c1146104b757600080fd5b8063938e3d7b1461037557806393ce53431461039557806397e1b4bc146103aa5780639bdcecd1146103d4578063a694fc3a146103ea578063ac9650d8146103fd57600080fd5b80635357e916116101085780635357e916146102545780636360106f1461029157806372f702f3146102b15780638caaa271146102d15780638da5cb5b146102f55780639168ae721461031357600080fd5b80621b7934146101cc57806313af4035146101ec57806316c621e01461020c5780632e1a7d4d1461021f578063372500ab1461023f57600080fd5b366101c757336001600160a01b037f000000000000000000000000000000000000000000000000000000000000000016146101c55760405162461bcd60e51b815260206004820181905260248201527f63616c6c6572206e6f74206e617469766520746f6b656e20777261707065722e60448201526064015b60405180910390fd5b005b600080fd5b3480156101d857600080fd5b506101c56101e73660046121ad565b6104d7565b3480156101f857600080fd5b506101c56102073660046121cf565b61061c565b6101c561021a3660046121f8565b61064c565b34801561022b57600080fd5b506101c561023a3660046121f8565b610682565b34801561024b57600080fd5b506101c56106b0565b34801561026057600080fd5b5061027461026f3660046121f8565b6106e4565b6040516001600160a01b0390911681526020015b60405180910390f35b34801561029d57600080fd5b506101c56102ac3660046121f8565b61070e565b3480156102bd57600080fd5b50600354610274906001600160a01b031681565b3480156102dd57600080fd5b506102e760075481565b604051908152602001610288565b34801561030157600080fd5b506001546001600160a01b0316610274565b34801561031f57600080fd5b5061035561032e3660046121cf565b60096020526000908152604090208054600182015460028301546003909301549192909184565b604080519485526020850193909352918301526060820152608001610288565b34801561038157600080fd5b506101c5610390366004612227565b610831565b3480156103a157600080fd5b50600c546102e7565b3480156103b657600080fd5b506103bf61085e565b60408051928352602083019190915201610288565b3480156103e057600080fd5b506102e760055481565b6101c56103f83660046121f8565b6108b3565b34801561040957600080fd5b5061041d6104183660046122d8565b6108e1565b604051610288919061239d565b34801561043657600080fd5b506102e760045481565b34801561044c57600080fd5b506103bf61045b3660046121cf565b6109d7565b34801561046c57600080fd5b506101c561047b3660046121f8565b610a01565b34801561048c57600080fd5b506102e7610a2f565b3480156104a157600080fd5b506104aa610a5b565b60405161028891906123ff565b3480156104c357600080fd5b50600b54610274906001600160a01b031681565b6104df610ae9565b6104fb5760405162461bcd60e51b81526004016101bc90612412565b6000600a600060016008546105109190612450565b81526020808201929092526040908101600020815160a0810183528154815260018201549381018490526002820154928101929092526003810154606083015260040154608082015291508314158061056d575080604001518214155b6105b95760405162461bcd60e51b815260206004820152601760248201527f52657761726420726174696f20756e6368616e6765642e00000000000000000060448201526064016101bc565b80516105c6908484610b16565b6020808201516040808401518151928352928201869052810191909152606081018390527feb6684a1e7c9bd2adc792fb253558f022bcbef39fb6ad31dc58cdfefdd5b51909060800160405180910390a1505050565b610624610ae9565b6106405760405162461bcd60e51b81526004016101bc90612412565b61064981610c3d565b50565b600280540361066d5760405162461bcd60e51b81526004016101bc90612463565b6002805561067a81610c8f565b506001600255565b60028054036106a35760405162461bcd60e51b81526004016101bc90612463565b6002805561067a81610e55565b60028054036106d15760405162461bcd60e51b81526004016101bc90612463565b600280556106dd61110b565b6001600255565b600681815481106106f457600080fd5b6000918252602090912001546001600160a01b0316905081565b610716610ae9565b6107325760405162461bcd60e51b81526004016101bc90612412565b6000600a600060016008546107479190612450565b81526020019081526020016000206040518060a0016040529081600082015481526020016001820154815260200160028201548152602001600382015481526020016004820154815250509050806000015182036107de5760405162461bcd60e51b81526020600482015260146024820152732a34b6b296bab734ba103ab731b430b733b2b21760611b60448201526064016101bc565b6107f18282602001518360400151610b16565b805160408051918252602082018490527fd968de290ed68f978b9e4816f7d4be9ef46189fe8eeb3eeb86199e7229cf2de091015b60405180910390a15050565b610839610ae9565b6108555760405162461bcd60e51b81526004016101bc90612412565b610649816111f9565b600080600a600060016008546108749190612450565b8152602001908152602001600020600101549150600a6000600160085461089b9190612450565b81526020019081526020016000206002015490509091565b60028054036108d45760405162461bcd60e51b81526004016101bc90612463565b6002805561067a816112c8565b60608167ffffffffffffffff8111156108fc576108fc612211565b60405190808252806020026020018201604052801561092f57816020015b606081526020019060019003908161091a5790505b50905060005b828110156109cf5761099f308585848181106109535761095361249a565b905060200281019061096591906124b0565b8080601f0160208091040260200160405190810160405280939291908181526020018383808284376000920191909152506115d992505050565b8282815181106109b1576109b161249a565b602002602001018190525080806109c7906124f7565b915050610935565b505b92915050565b6001600160a01b038116600090815260096020526040812054906109fa83611605565b9050915091565b6002805403610a225760405162461bcd60e51b81526004016101bc90612463565b6002805561067a81611672565b6000600a60006001600854610a449190612450565b815260200190815260200160002060000154905090565b60008054610a6890612510565b80601f0160208091040260200160405190810160405280929190818152602001828054610a9490612510565b8015610ae15780601f10610ab657610100808354040283529160200191610ae1565b820191906000526020600020905b815481529060010190602001808311610ac457829003601f168201915b505050505081565b6000610afd6001546001600160a01b031690565b6001600160a01b0316336001600160a01b031614905090565b80600003610b545760405162461bcd60e51b815260206004820152600b60248201526a064697669646520627920360ac1b60448201526064016101bc565b82600003610b9b5760405162461bcd60e51b8152602060048201526014602482015273074696d652d756e69742063616e277420626520360641b60448201526064016101bc565b60088054906001906000610baf838561254a565b90915550506040805160a08101825285815260208082018681528284018681524260608501908152600060808601818152888252600a9095529590952093518455905160018401555160028301559151600382015590516004909101558015610c375742600a6000610c22600185612450565b81526020810191909152604001600020600401555b50505050565b600180546001600160a01b038381166001600160a01b0319831681179093556040519116919082907f8292fce18fa69edf4db7b94ea2e58241df0ae57f97e0a6c9b29067028bf92d7690600090a35050565b6001546001600160a01b03163314610cb95760405162461bcd60e51b81526004016101bc90612412565b600b546000906001600160a01b031673eeeeeeeeeeeeeeeeeeeeeeeeeeeeeeeeeeeeeeee14610cf357600b546001600160a01b0316610d15565b7f00000000000000000000000000000000000000000000000000000000000000005b6040516370a0823160e01b81523060048201529091506000906001600160a01b038316906370a0823190602401602060405180830381865afa158015610d5f573d6000803e3d6000fd5b505050506040513d601f19601f82011682018060405250810190610d83919061255d565b600b54909150610dbf906001600160a01b03163330867f0000000000000000000000000000000000000000000000000000000000000000611814565b6040516370a0823160e01b815230600482015260009082906001600160a01b038516906370a0823190602401602060405180830381865afa158015610e08573d6000803e3d6000fd5b505050506040513d601f19601f82011682018060405250810190610e2c919061255d565b610e369190612450565b905080600c6000828254610e4a919061254a565b909155505050505050565b3360009081526009602052604081205490829003610eac5760405162461bcd60e51b81526020600482015260146024820152735769746864726177696e67203020746f6b656e7360601b60448201526064016101bc565b81811015610efc5760405162461bcd60e51b815260206004820152601c60248201527f5769746864726177696e67206d6f7265207468616e207374616b65640000000060448201526064016101bc565b610f0533611985565b81810361105c5760006006805480602002602001604051908101604052809291908181526020018280548015610f6457602002820191906000526020600020905b81546001600160a01b03168152600190910190602001808311610f46575b5050505050905060005b815181101561105957336001600160a01b0316828281518110610f9357610f9361249a565b60200260200101516001600160a01b031603611049578160018351610fb89190612450565b81518110610fc857610fc861249a565b602002602001015160068281548110610fe357610fe361249a565b9060005260206000200160006101000a8154816001600160a01b0302191690836001600160a01b03160217905550600680548061102257611022612576565b600082815260209020810160001990810180546001600160a01b0319169055019055611059565b611052816124f7565b9050610f6e565b50505b336000908152600960205260408120805484929061107b908490612450565b9250508190555081600760008282546110949190612450565b90915550506003546110d2906001600160a01b03163033857f0000000000000000000000000000000000000000000000000000000000000000611814565b60405182815233907f6352c5382c4a4578e712449ca65e83cdb392d045dfcf1cad9615189db2da244b9060200160405180910390a25050565b600061111633611a14565b33600090815260096020526040902060020154611133919061254a565b9050806000036111725760405162461bcd60e51b815260206004820152600a6024820152694e6f207265776172647360b01b60448201526064016101bc565b336000908152600960205260408120426001808301919091556002909101919091556008546111a19190612450565b336000818152600960205260409020600301919091556111c19082611bb8565b60405181815233907ffc30cddea38e2bf4d6ea7d3f9ed3b6ad7f176419f4963bd81318067a4aee73fe9060200160405180910390a250565b600080805461120790612510565b80601f016020809104026020016040519081016040528092919081815260200182805461123390612510565b80156112805780601f1061125557610100808354040283529160200191611280565b820191906000526020600020905b81548152906001019060200180831161126357829003601f168201915b50505050509050816000908161129691906125da565b507fc9c7c3fe08b88b4df9d4d47ef47d2c43d55c025a0ba88ca442580ed9e7348a16818360405161082592919061269a565b8060000361130b5760405162461bcd60e51b815260206004820152601060248201526f5374616b696e67203020746f6b656e7360801b60448201526064016101bc565b6003546000906001600160a01b031673eeeeeeeeeeeeeeeeeeeeeeeeeeeeeeeeeeeeeeed190161135c57507f00000000000000000000000000000000000000000000000000000000000000006113a6565b34156113985760405162461bcd60e51b815260206004820152600b60248201526a056616c7565206e6f7420360ac1b60448201526064016101bc565b506003546001600160a01b03165b33600090815260096020526040902054156113c9576113c433611985565b61143e565b6006805460018082019092557ff652222313e28459528d920b65115c16c04f3efc82aaedc97be59f3f377c0d3f0180546001600160a01b031916339081179091556000908152600960205260409020429082015560085461142a9190612450565b336000908152600960205260409020600301555b6040516370a0823160e01b81523060048201526000906001600160a01b038316906370a0823190602401602060405180830381865afa158015611485573d6000803e3d6000fd5b505050506040513d601f19601f820116820180604052508101906114a9919061255d565b6003549091506114e5906001600160a01b03163330867f0000000000000000000000000000000000000000000000000000000000000000611814565b6040516370a0823160e01b815230600482015260009082906001600160a01b038516906370a0823190602401602060405180830381865afa15801561152e573d6000803e3d6000fd5b505050506040513d601f19601f82011682018060405250810190611552919061255d565b61155c9190612450565b3360009081526009602052604081208054929350839290919061158090849061254a565b925050819055508060076000828254611599919061254a565b909155505060405181815233907fb539ca1e5c8d398ddf1c41c30166f33404941683be4683319b57669a93dad4ef9060200160405180910390a250505050565b60606115fe838360405180606001604052806027815260200161283d60279139611c5a565b9392505050565b6001600160a01b038116600090815260096020526040812054810361164357506001600160a01b031660009081526009602052604090206002015490565b61164c82611a14565b6001600160a01b0383166000908152600960205260409020600201546109d1919061254a565b6001546001600160a01b0316331461169c5760405162461bcd60e51b81526004016101bc90612412565b600c5481116116b85780600c546116b39190612450565b6116bb565b60005b600c55600b546116f7906001600160a01b03163033847f0000000000000000000000000000000000000000000000000000000000000000611814565b6003546000906001600160a01b031673eeeeeeeeeeeeeeeeeeeeeeeeeeeeeeeeeeeeeeee14611731576003546001600160a01b0316611753565b7f00000000000000000000000000000000000000000000000000000000000000005b6007546040516370a0823160e01b8152306004820152919250906001600160a01b038316906370a0823190602401602060405180830381865afa15801561179e573d6000803e3d6000fd5b505050506040513d601f19601f820116820180604052508101906117c2919061255d565b10156118105760405162461bcd60e51b815260206004820152601e60248201527f5374616b696e6720746f6b656e2062616c616e636520726564756365642e000060448201526064016101bc565b5050565b811561197e5773eeeeeeeeeeeeeeeeeeeeeeeeeeeeeeeeeeeeeeed196001600160a01b0386160161197257306001600160a01b038516036118b957604051632e1a7d4d60e01b8152600481018390526001600160a01b03821690632e1a7d4d90602401600060405180830381600087803b15801561189157600080fd5b505af11580156118a5573d6000803e3d6000fd5b505050506118b4838383611d37565b61197e565b306001600160a01b038416036119675734821461190e5760405162461bcd60e51b81526020600482015260136024820152721b5cd9cb9d985b1d5948084f48185b5bdd5b9d606a1b60448201526064016101bc565b806001600160a01b031663d0e30db0836040518263ffffffff1660e01b81526004016000604051808303818588803b15801561194957600080fd5b505af115801561195d573d6000803e3d6000fd5b505050505061197e565b6118b4838383611d37565b61197e85858585611dfc565b5050505050565b600061199082611a14565b6001600160a01b0383166000908152600960205260408120600201805492935083929091906119c090849061254a565b90915550506001600160a01b0382166000908152600960205260409020426001918201556008546119f19190612450565b6001600160a01b0390921660009081526009602052604090206003019190915550565b6001600160a01b03811660009081526009602090815260408083208151608081018352815481526001820154938101939093526002810154918301919091526003015460608201819052600854815b81811015611b7a576000818152600a60209081526040808320815160a081018352815481526001820154938101939093526002810154918301919091526003810154606083015260040154608082015290848303611ac5578560200151611acb565b81606001515b905060008260800151600003611ae15742611ae7565b82608001515b9050600080611b1489600001518585611b009190612450565b611b0a91906126bf565b8660200151611e54565b91509150600080611b438c8860400151896000015186611b3491906126ec565b611b3e91906126ec565b611e9f565b91509150838015611b515750815b611b5b578b611b5d565b805b9b5050505050505050600181611b73919061254a565b9050611a63565b50611b9384600554600a611b8e91906127f2565b611e54565b600454909550611ba59150600a6127f2565b611baf90856126ec565b95945050505050565b600c54811115611c0a5760405162461bcd60e51b815260206004820152601860248201527f4e6f7420656e6f7567682072657761726420746f6b656e73000000000000000060448201526064016101bc565b80600c6000828254611c1c9190612450565b9091555050600b54611810906001600160a01b03163084847f0000000000000000000000000000000000000000000000000000000000000000611814565b60606001600160a01b0384163b611cc25760405162461bcd60e51b815260206004820152602660248201527f416464726573733a2064656c65676174652063616c6c20746f206e6f6e2d636f6044820152651b9d1c9858dd60d21b60648201526084016101bc565b600080856001600160a01b031685604051611cdd91906127fe565b600060405180830381855af49150503d8060008114611d18576040519150601f19603f3d011682016040523d82523d6000602084013e611d1d565b606091505b5091509150611d2d828286611eba565b9695505050505050565b6000836001600160a01b03168360405160006040518083038185875af1925050503d8060008114611d84576040519150601f19603f3d011682016040523d82523d6000602084013e611d89565b606091505b5050905080610c3757816001600160a01b031663d0e30db0846040518263ffffffff1660e01b81526004016000604051808303818588803b158015611dcd57600080fd5b505af1158015611de1573d6000803e3d6000fd5b50610c37935050506001600160a01b03841690508585611ef3565b816001600160a01b0316836001600160a01b03160315610c3757306001600160a01b03841603611e3f57611e3a6001600160a01b0385168383611ef3565b610c37565b610c376001600160a01b038516848484611f5b565b60008083600003611e6b5750600190506000611e98565b83830283858281611e7e57611e7e6126d6565b0414611e91576000809250925050611e98565b6001925090505b9250929050565b60008083830184811015611e91576000809250925050611e98565b60608315611ec95750816115fe565b825115611ed95782518084602001fd5b8160405162461bcd60e51b81526004016101bc91906123ff565b6040516001600160a01b038316602482015260448101829052611f5690849063a9059cbb60e01b906064015b60408051601f198184030181529190526020810180516001600160e01b03166001600160e01b031990931692909217909152611f93565b505050565b6040516001600160a01b0380851660248301528316604482015260648101829052610c379085906323b872dd60e01b90608401611f1f565b6000611fe8826040518060400160405280602081526020017f5361666545524332303a206c6f772d6c6576656c2063616c6c206661696c6564815250856001600160a01b03166120659092919063ffffffff16565b805190915015611f565780806020019051810190612006919061281a565b611f565760405162461bcd60e51b815260206004820152602a60248201527f5361666545524332303a204552433230206f7065726174696f6e20646964206e6044820152691bdd081cdd58d8d9595960b21b60648201526084016101bc565b6060612074848460008561207c565b949350505050565b6060824710156120dd5760405162461bcd60e51b815260206004820152602660248201527f416464726573733a20696e73756666696369656e742062616c616e636520666f6044820152651c8818d85b1b60d21b60648201526084016101bc565b6001600160a01b0385163b6121345760405162461bcd60e51b815260206004820152601d60248201527f416464726573733a2063616c6c20746f206e6f6e2d636f6e747261637400000060448201526064016101bc565b600080866001600160a01b0316858760405161215091906127fe565b60006040518083038185875af1925050503d806000811461218d576040519150601f19603f3d011682016040523d82523d6000602084013e612192565b606091505b50915091506121a2828286611eba565b979650505050505050565b600080604083850312156121c057600080fd5b50508035926020909101359150565b6000602082840312156121e157600080fd5b81356001600160a01b03811681146115fe57600080fd5b60006020828403121561220a57600080fd5b5035919050565b634e487b7160e01b600052604160045260246000fd5b60006020828403121561223957600080fd5b813567ffffffffffffffff8082111561225157600080fd5b818401915084601f83011261226557600080fd5b81358181111561227757612277612211565b604051601f8201601f19908116603f0116810190838211818310171561229f5761229f612211565b816040528281528760208487010111156122b857600080fd5b826020860160208301376000928101602001929092525095945050505050565b600080602083850312156122eb57600080fd5b823567ffffffffffffffff8082111561230357600080fd5b818501915085601f83011261231757600080fd5b81358181111561232657600080fd5b8660208260051b850101111561233b57600080fd5b60209290920196919550909350505050565b60005b83811015612368578181015183820152602001612350565b50506000910152565b6000815180845261238981602086016020860161234d565b601f01601f19169290920160200192915050565b6000602080830181845280855180835260408601915060408160051b870101925083870160005b828110156123f257603f198886030184526123e0858351612371565b945092850192908501906001016123c4565b5092979650505050505050565b6020815260006115fe6020830184612371565b6020808252600e908201526d139bdd08185d5d1a1bdc9a5e995960921b604082015260600190565b634e487b7160e01b600052601160045260246000fd5b818103818111156109d1576109d161243a565b6020808252601f908201527f5265656e7472616e637947756172643a207265656e7472616e742063616c6c00604082015260600190565b634e487b7160e01b600052603260045260246000fd5b6000808335601e198436030181126124c757600080fd5b83018035915067ffffffffffffffff8211156124e257600080fd5b602001915036819003821315611e9857600080fd5b6000600182016125095761250961243a565b5060010190565b600181811c9082168061252457607f821691505b60208210810361254457634e487b7160e01b600052602260045260246000fd5b50919050565b808201808211156109d1576109d161243a565b60006020828403121561256f57600080fd5b5051919050565b634e487b7160e01b600052603160045260246000fd5b601f821115611f5657600081815260208120601f850160051c810160208610156125b35750805b601f850160051c820191505b818110156125d2578281556001016125bf565b505050505050565b815167ffffffffffffffff8111156125f4576125f4612211565b612608816126028454612510565b8461258c565b602080601f83116001811461263d57600084156126255750858301515b600019600386901b1c1916600185901b1785556125d2565b600085815260208120601f198616915b8281101561266c5788860151825594840194600190910190840161264d565b508582101561268a5787850151600019600388901b60f8161c191681555b5050505050600190811b01905550565b6040815260006126ad6040830185612371565b8281036020840152611baf8185612371565b80820281158282048414176109d1576109d161243a565b634e487b7160e01b600052601260045260246000fd5b60008261270957634e487b7160e01b600052601260045260246000fd5b500490565b600181815b8085111561274957816000190482111561272f5761272f61243a565b8085161561273c57918102915b93841c9390800290612713565b509250929050565b600082612760575060016109d1565b8161276d575060006109d1565b8160018114612783576002811461278d576127a9565b60019150506109d1565b60ff84111561279e5761279e61243a565b50506001821b6109d1565b5060208310610133831016604e8410600b84101617156127cc575081810a6109d1565b6127d6838361270e565b80600019048211156127ea576127ea61243a565b029392505050565b60006115fe8383612751565b6000825161281081846020870161234d565b9190910192915050565b60006020828403121561282c57600080fd5b815180151581146115fe57600080fdfe416464726573733a206c6f772d6c6576656c2064656c65676174652063616c6c206661696c6564a26469706673582212208e6d02051ab4777e4b5f497f8419a256da86380731949e4fd03374f7c7fa83b464736f6c63430008120033",
  "linkReferences": {},
  "deployedLinkReferences": {}
}